:100000008FC097C2A8C0A7C0DDC3A5C0A4C0A3C0AD
:10001000A2C0C7C2A0C001C841C89DC09DC09BC0AE
:100020004CC499C098C00D0A0025532025533A2589
:10003000642000444542554700494E464F002E2E4D
:100040002F6D696E697869652E630053796E632040
:10005000636E742025642C206C6173742073796E38
:100060006320253032642F253032642F25303264EE
:1000700020253032643A253032643A25303264002B
:100080002E2E2F6D696E697869652E6300416C6153
:10009000726D20253032643A253032643A25303290
:1000A00064002E2E2F6D696E697869652E63004499
:1000B00043462073746174653A202564002E2E2F08
:1000C0006D696E697869652E63004C6F63616C20A1
:1000D00074696D653A20253032643A253032643ACD
:1000E00025303264002E2E2F6D696E697869652E79
:1000F000630048563A256C64204C696768743A2559
:10010000642044433A2564002E2E2F6D696E697871
:1001100069652E6300496E697420646F6E65210005
:1001200011241FBECFE5D4E0DEBFCDBF11E0A0E6B5
:10013000B0E0E8EAFCE102C005900D92A432B107FC
:10014000D9F722E0A4E2B1E001C01D92AE32B207BD
:10015000E1F7C8D3A7CD54CF1F920F920FB60F92DD
:1001600011242F933F934F935F936F937F938F93BC
:100170009F93AF93BF93EF93FF9364B175B1809159
:10018000260190912701892B29F1E0912601F09118
:1001900027018091280190912901099597FD1AC0A6
:1001A000909329018093280197B1907F892B87B97B
:1001B000369AFF91EF91BF91AF919F918F917F916F
:1001C0006F915F914F913F912F910F900FBE0F90C4
:1001D0001F9018953798EDCF862F886086B9629565
:1001E000660F660F607C67B941FF09C080912401EA
:1001F000909125018260909325018093240142FD16
:100200003D9A089537980895379920C0379A97B145
:10021000907F892B87B96115710509F170932701CA
:10022000609326018091240190912501892B99F0FA
:1002300085B78F78806185BF85B7806885BF8895D1
:1002400085B78F7785BF8FEF9FEF0895369BDFCF00
:100250003699FCCFDCCF369A8FEF9FEF0895369A10
:100260003699FECF379884B195B1089584B5209121
:10027000530130915401A901482BCA014091390121
:1002800050913A01841B950B40913B01423009F497
:1002900083C0433051F1413069F080E090E08299B1
:1002A00098C051E0541709F493C020915301309144
:1002B000540180C0829B8AC08138914008F48AC072
:1002C0001092360186E690E09093380180933701D2
:1002D000809166008F70809333018AE291E0909361
:1002E00032018093310153E063C08D34910508F0F1
:1002F0006AC082996BC08C30910508F46BC051E0E4
:100300008732910508F468C0E0913701F091380117
:10031000608167FD73C0462F4077403309F494C075
:1003200008F45CC0403509F480C0403609F06CC068
:1003300080913401880F852B8093340152E08091A5
:100340003301815080933301811132C066FF0DC0AB
:10035000A0913101B0913201CD010196909332010B
:1003600080933101809134018C93CF010196909359
:100370003801809337018181982F9F7090933301CA
:100380001092340110923501807709F43FC04091FA
:100390003B0180E090E086CF843F910530F0829968
:1003A00006C080E090E050E005C0829B0FC053E0A3
:1003B00080E090E050933B0144B5242B30933A0108
:1003C0002093390108958299ECCF99CF80E090E095
:1003D0000895089550E0ECCF50E096CF4032A1F45C
:1003E00080913601A82FA170B0E0852F90E0A8176A
:1003F000B907B1F150E010923601A1CF409136011A
:10040000450F4093360187CF52E099CF87E0EAE26B
:10041000F1E0ADE1B2E001900D928A95E1F74091F3
:100420003B0181E090E050E03DCF879788F48091D8
:10043000350190E040913401940F909334018F5F27
:100440008093350152E07BCF8797F0F250E077CF71
:1004500080913501A82FB0E0AD58BF4F9C91EACFF5
:1004600052E0C9CFCF93DF931F92CDB7DEB741E003
:10047000BE016F5F7F4F80E063D690E00F90DF9109
:10048000CF910895CF93DF931F92CDB7DEB78983C5
:1004900041E0BE016F5F7F4F80E08AD690E00F9011
:1004A000DF91CF91089562E372E082E492E0AAC7FF
:1004B0000F931F93CF93DF93CDB7DEB78F819885CE
:1004C00029853A854B855C855F934F933F932F93A6
:1004D0009F938F9389E290E09F938F9304E212E0C1
:1004E000F80183818F9382818F93D5D7AE01415FCD
:1004F0005F4F6D857E85F80182819381E4D786E226
:1005000090E09F938F93F80183818F9382818F93E3
:10051000C2D70FB6F894DEBF0FBECDBFDF91CF912B
:100520001F910F910895EDE7F0E080818460808352
:1005300008951F920F920FB60F9211242F933F939D
:100540004F935F936F937F938F939F93AF93BF93DB
:10055000EF93FF938BDE892B71F080917F00909158
:10056000800001969093800080937F0080917D00B1
:10057000806880937D0080917E00816080937E0002
:10058000FF91EF91BF91AF919F918F917F916F916B
:100590005F914F913F912F910F900FBE0F901F9041
:1005A00018951F920F920FB60F9211240F931F935D
:1005B0002F933F934F935F936F937F938F939F936B
:1005C000AF93BF93CF93DF93EF93FF93809151014C
:1005D00090915201019620914F0130915001E0918C
:1005E0007B00F0917C00A081B1814C918217930730
:1005F00008F06BC021E030E0028002C0220F331F00
:100600000A94E2F7242B2C938233910509F46CC0F1
:10061000909352018093510180914D0190914E0130
:100620008038910508F46CC010924E0110924D0173
:10063000A081B1812C9181E090E0028002C0880FFE
:10064000991F0A94E2F7809582238C9301E0E032AF
:10065000F00708F46FC080E191E090937C008093F4
:100660007B0080E090E0FC01E358FF4FE681F0E082
:10067000EA50FF4F608170E0E6E0F1E020E0A5E3A2
:10068000B0E080E090E0C1E0D0E0AB01082E02C015
:10069000559547950A94E2F740FF6CC04C918E0146
:1006A00002C0000F111F2A95E2F79801242B2C930A
:1006B00001968430910509F46CC0DF0112970D900A
:1006C000BC91A02D20813496E0CF21E030E0028063
:1006D00002C0220F331F0A94E2F7209524232C93A3
:1006E0008233910509F094CF10925201109251017A
:1006F00080914D0190914E018038910508F094CF82
:10070000019690934E0180934D01FF91EF91DF91FF
:10071000CF91BF91AF919F918F917F916F915F9199
:100720004F913F912F911F910F910F900FBE0F90FE
:100730001F9018953496F0937C00E0937B0011E0B5
:10074000E032F107B8F180917D002091820084FDB4
:1007500027C08091820091E0211101C090E0891BA7
:10076000809382008091820090E09093500180936A
:100770004F01CBCF3C91AE0101C0440F2A95EAF75F
:10078000242F209523232C9301968430910509F082
:1007900094CF82E390E09093500180934F01B5CFC6
:1007A0008091820091E0213208F090E0890F8093DF
:1007B0008200D8CFE051F140CF019595879595956E
:1007C000879551CF1F920F920FB60F9211248F93DE
:1007D0009F9380915301909154019395909354016C
:1007E0008093530180917D00826080937D00809191
:1007F0007D00816080937D0080917D008295817075
:1008000091E0892790917D0080FB94F990937D0081
:1008100080918F0090919000CB977CF11092900086
:1008200010928F0080918D0090918E00CB97ACF04C
:1008300010928E0010928D0080918B0090918C0010
:1008400047975CF110928C0010928B009F918F91D2
:100850000F900FBE0F901F90189580918D00909172
:100860008E00019690938E0080938D009F918F91C2
:100870000F900FBE0F901F90189580918F00909150
:10088000900001969093900080938F009F918F919C
:100890000F900FBE0F901F90189580918B00909134
:1008A0008C00019690938C0080938B009F918F9188
:1008B0000F900FBE0F901F9018951F920F920FB6BA
:1008C0000F9211248F938EB58C7F8EBD8FB58F774D
:1008D0008FBD83B78E7F83BF8F910F900FBE0F9018
:1008E0001F90189500D000D0CDB7DEB78CE387BB42
:1008F00080E681BB8FE084BB98E192BB85B78160C5
:1009000085BF8BB780648BBF89B7816089BF82E860
:100910008FBD9EBDB99A80EA90E097BD86BD2091BB
:10092000810030E0A0EAB0E004D524E630E040E009
:1009300050E0DDD43BBD2ABD85E085BD88E082BDA9
:1009400089B7806489BF8BE488B920E030E043E94F
:1009500052E069E170E080E07FD4A5DD789485E124
:1009600091E09F938F9381E08F9380EC8F9388E049
:1009700091E09F938F9389E390E09F938F9398DD0D
:100980000FB6F894DEBF0FBECDBF2AE0622E712CE9
:1009900030E4832E30E7932E31E3A32EB12C45EEC5
:1009A000C42E40E0D42E53E3252E50E0352E6AECC1
:1009B000E62E60E0F62E40E050E067E083E00CDCDD
:1009C0008EB581608EBD8FB580688FBD83B7816025
:1009D00083BF9FE088E10FB6F894A89581BD0FBE54
:1009E00091BD85B78F7885BF4599C1C10BE410E0F3
:1009F0009EE3492E90E0592E1A8309833DC08091D1
:100A00007D0082FDD6C080917D0083FD1AC180915A
:100A10007D0081FD27C180917D0087FF17C08091F7
:100A20007D008F7780937D0080911F0290E09093EE
:100A30008C0080938B0080911E0290E090938E003A
:100A400080938D001092900010928F0080917E0014
:100A500080FF08C080917E0081FF04C080917D00EE
:100A600086FF58C185B7806885BF889585B78F7721
:100A700085BFA89545997BC180917D0080FFBFCF40
:100A800080917D008E7F80937D0080918B0090917E
:100A90008C00B30119D46093830080918B009091F6
:100AA0008C00B30111D48093840080918D009091CB
:100AB0008E00B30109D46093850080918D009091E0
:100AC0008E00B30101D48093860060E070E085E081
:100AD00090E09ADB90938A008093890080917D005A
:100AE00085FF8DCF80917D0086FD89CF60E070E02D
:100AF00084E090E089DB90938800809387002091C8
:100B00008700309188004091810080918900909108
:100B10008A001F924F939F938F93A0E0BAE009D46D
:100B20009B01AC018AE056954795379527958A95A4
:100B3000D1F768E873E284E090E0B7D3A5019401AF
:100B4000D6D35F934F933F932F93A2EFB0E0BF9321
:100B5000AF9311E01F9392ED9F93DF92CF923F925C
:100B60002F92A6DC60918F007091900040918D00D3
:100B700050918E0020918B0030918C007F936F9369
:100B80005F934F933F932F93FF92EF921F9383EDC9
:100B90008F93ADEBB0E0BF93AF933F922F9288DC81
:100BA0000FB6F894DEBF0FBECDBF80917D0082FFEF
:100BB0002ACF80917D00806480937D0060914B01FD
:100BC00070914C016E30710598F01DC0645C7E4FD1
:100BD00041E080E0EDD260914B0170914C016F5F7C
:100BE0007F4F70934C0160934B016E30710558F448
:100BF000645C7E4F41E080E0A3D260914B01709134
:100C00004C018111E3CF80917D008B7F80937D002B
:100C10009B0121503109F901E45CFE4F80818D3048
:100C200009F442C08A3009F43FC06E30710509F4FE
:100C30008FC0FB01E45CFE4F108280917D0083FF3A
:100C4000E6CE80917D00877F80937D00C29AAFE3DE
:100C5000BCE91197F1F700C00000C29880917D00B7
:100C600081FFD9CE80917D008D7F80937D00849B14
:100C700038C08399D0CE8FE39CE90197F1F700C08B
:100C800000008399C8CE80918D0090918E00CB9703
:100C90000CF09FC080918D0090918E0001969093F2
:100CA0008E0080938D00B7CE69EB70E08CE391E00D
:100CB00087D3892B09F493C08EB58C7F8EBD8FB5F9
:100CC0008F778FBD83B78E7F83BF10924C011092B8
:100CD0004B0180917D008F7B80937D0060E070E010
:100CE000A8CFEFE3FCE93197F1F700C00000849949
:100CF000C0CF80918B0090918C0047970CF06CC016
:100D000080918B0090918C00019690938C00809341
:100D10008B00AFCF80917E008E7F80937E0080918C
:100D20003B011F928F938FEA90E09F938F9381E016
:100D30008F9380EF8F9382EA90E09F938F933F92FF
:100D40002F92B6DB0FB6F894DEBF0FBECDBF8ACEB2
:100D500080914A01EAE4F1E0829391E0EC33F907F3
:100D6000D9F730934C0120934B01B90162CF0FB6F4
:100D7000F894A89581B5886181BD11BC0FBE42DA97
:100D800080E085D288B3807E88BB85B3807F85BBB9
:100D900082B38C7982BB85B78F78806385BF459B92
:100DA0000FC0479AB5E8BA95F1F7000085B780689B
:100DB00085BF889585B78F7785BF47984599F1CFCF
:100DC00020E030E043E952E069E170E080E044D2A5
:100DD000F2CD80E090E063CF80E090E096CF62ECCF
:100DE00070E08CE391E0ECD2892B51F08EB58160FC
:100DF0008EBD8FB580688FBD83B7816083BF65CF9F
:100E00006AEC70E08CE391E0DBD2009791F00896F9
:100E1000BAD2809381002091810030E0A0EAB0E056
:100E200088D224E630E040E050E061D23BBD2ABDEC
:100E30004CCF62ED70E08CE391E0C2D2892B31F0AF
:100E400080917D00886080937D003FCF67ED70E0EA
:100E50008CE391E0B5D2892B09F0FFCF69ED70E00A
:100E60008CE391E0ADD29C01009721F1DC01169654
:100E70001C92169719961C9219971C961C92049610
:100E80002B833C8380D290938C0080938B002B81AA
:100E90003C81C901079677D290938E0080938D0094
:100EA0002B813C81C9010A966ED290939000809369
:100EB0008F000BCF6DED70E08CE391E081D29C014F
:100EC000009709F445C0FC01108613861686069625
:100ED0002B833C8358D290939200809391002B8176
:100EE0003C81C90109964FD290939400809393005E
:100EF0002B813C81C9010C9646D290939600809339
:100F0000950040919500509196002091930030916A
:100F1000940080919100909192005F934F933F9342
:100F20002F939F938F93ADE8B0E0BF93AF9381E091
:100F30008F9388E68F93A0E8B0E0BF93AF933F9282
:100F40002F92B6DA0FB6F894DEBF0FBECDBFBDCE7E
:100F500063EE70E08CE391E033D2009759F06AEED3
:100F600070E02ED2892BC1F080917E008260809348
:100F70007E00ABCE6EEE70E08CE391E021D26AEEA3
:100F800070E00097A9F01CD2892B61F080917E005F
:100F90008D7F80937E0099CE80917D0080628093CA
:100FA0007D0093CE80917D008F7D80937D008DCEDE
:100FB0008CE391E005D2892B09F487CE80917F00E4
:100FC0009091800020911E021F922F9320911F026A
:100FD0001F922F93209123021F922F932091220280
:100FE0001F922F93209120021F922F939F938F93F4
:100FF0009A819F93A981AF9381E08F9387E78F9325
:101000005F924F92A9E3B0E0BF93AF9351DA0FB66E
:10101000F894DEBF0FBECDBF58CE1F920F920FB611
:101020000F9211242F933F934F935F936F937F936E
:101030008F939F93AF93BF93EF93FF932CB1E09166
:101040009900F0919A00818190E00196628170E0B0
:101050003BD19081981749F08183A481B581A80F75
:10106000B11D2C9383818F5F8383E0919D00F0916C
:101070009E00309711F080E00995FF91EF91BF91AC
:10108000AF919F918F917F916F915F914F913F9120
:101090002F910F900FBE0F901F9018951F920F92D7
:1010A0000FB60F9211242F933F934F935F936F933B
:1010B0007F938F939F93AF93BF93EF93FF93E091B1
:1010C0009B00F0919C0023812223C1F080819181BB
:1010D0008917A1F190E00196628170E0F5D08083DC
:1010E000215023830480F581E02DE80FF11D8081DC
:1010F000E091A100F091A200808307C0E091A500DB
:10110000F091A60080818F7D8083E0919F00F09117
:10111000A000309711F080E00995FF91EF91BF9109
:10112000AF919F918F917F916F915F914F913F917F
:101130002F910F900FBE0F901F90189580E0D8CF81
:10114000CF93DF9390E0F894442361F126E1289F48
:10115000F001299FF00D1124E956FF4F0280F38121
:10116000E02D808191819817E9F0EB0120E090E07B
:101170000196628170E0A8D080839381915093831F
:10118000A481B581A80FB11D8C9189932F5F42175F
:1011900021F0808191818913EACF7894822FDF91A9
:1011A000CF91089520E07894822FDF91CF91089518
:1011B0000F931F93CF93DF93282F30E0F8944423AD
:1011C00009F448C0EB012196FB01008186E1829F72
:1011D000F001839FF00D1124E956FF4F0480F58143
:1011E000E02D818190E00196628170E06DD0982FB2
:1011F000508110E08517B9F09183A481B581A80FC3
:10120000B11D0C9393819F5F93831F5F411759F02A
:101210000991818190E00196628170E055D0982F0C
:1012200050818513E9CF789486E1829FF001839FF6
:10123000F00D1124E956FF4F0684F785E02D8081DB
:1012400085FD02C080628083812FDF91CF911F9145
:101250000F91089510E0E7CFE6E18E9FC0011124C1
:10126000FC01E956FF4F5783468331872087A289C7
:10127000B3896C93A489B5897C93A685B78588E9E1
:101280008C930088F189E02D86E88083089526E11B
:10129000829FC0011124FC01E956FF4F0684F785A7
:1012A000E02D80818F7E80830895DB018F939F9353
:1012B0004CD0BF91AF91A29F800D911DA39F900D27
:1012C000B29F900D1124089597FB072E16F40094F9
:1012D00006D077FD08D043D007FC05D03EF49095AA
:1012E00081959F4F0895709561957F4F0895A1E274
:1012F0001A2EAA1BBB1BFD010DC0AA1FBB1FEE1F90
:10130000FF1FA217B307E407F50720F0A21BB30BDA
:10131000E40BF50B661F771F881F991F1A9469F756
:1013200060957095809590959B01AC01BD01CF01B2
:101330000895A29FB001B39FC001A39F01D0B29FA7
:10134000700D811D1124911D0895F3DFA59F900D4F
:10135000B49F900DA49F800D911D11240895AA1B88
:10136000BB1B51E107C0AA1FBB1FA617B70710F090
:10137000A61BB70B881F991F5A95A9F780959095C2
:10138000BC01CD010895FC0188279927E89421919B
:101390002032E9F3293010F02E30C8F32B3239F027
:1013A0002D3231F4689403C025D0820F911D219114
:1013B00020532A30C8F31EF4909581959F4F0895CD
:1013C000FB0151915523A9F0BF01DC014D91451757
:1013D0004111E1F759F4CD010190002049F04D9100
:1013E00040154111C9F3FB014111EFCF81E090E0BD
:1013F000019708957AE0979F902D879F802D910DFA
:10140000112408950F931F93CF93DF93EC018B0169
:10141000892B29F4672B19F480E090E037C06EE047
:1014200070E081E090E021D2FC01892BA9F380E8F3
:1014300083830115110571F01387028781E8838387
:101440008091240290912502892B21F4F0932502AA
:10145000E09324022097C9F0D187C08783818260FE
:1014600083838091260290912702892B71F4F09357
:101470002702E09326028091280290912902892B6D
:1014800021F4F0932902E0932802CF01DF91CF915C
:101490001F910F910895A0E0B0E0E0E5FAE0D9C314
:1014A0000F811885F801838188608383AE01455FD1
:1014B0005F4F69857A85C80114D0F8012381277FA1
:1014C0002383E4E0E2C3CF93DF93EC018B81886058
:1014D0008B83CE0106D02B81277F2B83DF91CF9189
:1014E0000895ACE0B0E0E6E7FAE0A5C36C017B014B
:1014F0008A01FC0117821682838181FFB1C1CE016E
:1015000001964C01F6019381F70193FD859193FFBC
:1015100081917F01882309F49FC1853239F493FDBD
:10152000859193FF81917F01853221F4B60190E08E
:10153000F4D2E8CF512C312C20E02032A0F48B32B1
:1015400069F030F4803259F0833269F420612CC0A4
:101550008D3239F0803339F4216026C02260246056
:1015600023C0286021C027FD27C030ED380F3A3056
:1015700078F426FF06C0FAE05F9E300D1124532E4A
:1015800013C08AE0389E300D1124332E20620CC027
:101590008E3221F426FD60C1206406C08C3611F421
:1015A000206802C0883641F4F70193FD859193FFCE
:1015B00081917F018111C1CF982F9F7D95549330E8
:1015C00028F40C5F1F4F9FE399830DC0833631F0E1
:1015D000833771F0833509F057C021C0F80180814D
:1015E00089830E5F1F4F44244394512C540114C02F
:1015F0003801F2E06F0E711CF801A080B18026FF67
:1016000003C0652D70E002C06FEF7FEFC5012C872E
:1016100079D22C0183012C852F77222E16C0380118
:10162000F2E06F0E711CF801A080B18026FF03C0AC
:10163000652D70E002C06FEF7FEFC5012C8750D29F
:101640002C012C852068222E830123FC19C0832DB8
:1016500090E048165906A0F4B60180E290E05DD211
:101660003A94F5CFF50127FC859127FE81915F0122
:10167000B60190E052D231103A94F1E04F1A51087D
:101680004114510479F7DFC0843611F0893631F501
:10169000F80127FF07C060817181828193810C5F0F
:1016A0001F4F08C060817181072E000C880B990BB9
:1016B0000E5F1F4F2F76722E97FF09C09095809571
:1016C000709561957F4F8F4F9F4F2068722E2AE053
:1016D00030E0A40152D2A82EA81843C0853729F4BF
:1016E0002F7EB22E2AE030E025C0F22FF97FBF2EE8
:1016F0008F36C1F018F4883579F0AEC0803719F014
:10170000883721F0A9C02F2F2061B22EB4FE0DC062
:101710008B2D8460B82E09C024FF0AC09F2F9660CD
:10172000B92E06C028E030E005C020E130E002C05C
:1017300020E132E0F801B7FE07C06081718182814B
:1017400093810C5F1F4F06C06081718180E090E043
:101750000E5F1F4FA40111D2A82EA818FB2DFF77F2
:101760007F2E76FE0BC0372D3E7FA51450F474FEFD
:101770000AC072FC08C0372D3E7E05C0BA2C372D3A
:1017800003C0BA2C01C0B52C34FF0DC0FE01EA0D18
:10179000F11D8081803311F4397E09C032FF06C00B
:1017A000B394B39404C0832F867809F0B39433FDC7
:1017B00012C030FF06C0B31490F43A0C532C5B18DF
:1017C0000FC0B31468F4B60180E290E03C87A5D165
:1017D000B3943C85F6CFB31418F43B1802C05A2CCE
:1017E000312C34FF11C0B60180E390E03C8795D1E5
:1017F0003C8532FF16C031FD03C088E790E002C08F
:1018000088E590E0B6010CC0832F867851F031FF57
:1018100002C08BE201C080E237FD8DE2B60190E0AC
:101820007CD1A51430F4B60180E390E076D15A94CF
:10183000F8CFAA94F401EA0DF11D8081B60190E081
:101840006CD1A110F6CF332009F45CCEB60180E252
:1018500090E063D13A94F7CFF6018681978102C078
:101860008FEF9FEF2C96E2E102C20F931F93CF936D
:10187000DF93869F8001879F100D969F100D112486
:10188000C8010DD0EC01009721F0A80160E070E0E4
:1018900032D1CE01DF91CF911F910F9108950F9317
:1018A0001F93CF93DF938230910510F482E090E094
:1018B000E0912C02F0912D0220E030E0A0E0B0E0B9
:1018C000309719F1408151810281138148175907DE
:1018D000C8F08417950769F4109731F012960C93AD
:1018E000129713961C9327C000932C0210932D027D
:1018F00022C02115310519F04217530718F49A0137
:10190000BD01EF01DF01F801DBCF21153105F9F051
:10191000281B390B2430310580F48A819B816115A5
:10192000710521F0FB019383828304C090932D0203
:1019300080932C02FE01329644C0FE01E20FF31F99
:101940008193919322503109398328833AC02091A1
:101950002A0230912B02232B41F420916200309116
:10196000630030932B0220932A0220916000309173
:1019700061002115310541F42DB73EB74091640057
:1019800050916500241B350BE0912A02F0912B0247
:10199000E217F307A0F42E1B3F0B2817390778F046
:1019A000AC014E5F5F4F2417350748F04E0F5F1FA5
:1019B00050932B0240932A028193919302C0E0E05E
:1019C000F0E0CF01DF91CF911F910F910895CF9358
:1019D000DF93009709F481C0FC01329713821282D1
:1019E000A0912C02B0912D02109781F420813181B9
:1019F000820F931F20912A0230912B02281739075A
:101A000051F5F0932B02E0932A0267C0ED0120E02C
:101A100030E0CE17DF0740F44A815B819E0141151B
:101A20005105F1F0EA01F5CFD383C28340815181A2
:101A3000840F951FC817D90759F488819981840F9D
:101A4000951F0296918380838A819B8193838283F1
:101A50002115310529F4F0932D02E0932C023DC0AD
:101A6000E901FB83EA8349915991C40FD51FEC1713
:101A7000FD0761F480819181840F951F0296E90131
:101A800099838883828193819B838A83E0E0F0E05D
:101A900012968D919C911397009719F0FD01DC012E
:101AA000F7CF8D919C9111979D012E5F3F4F820F33
:101AB000931F20912A0230912B022817390769F4CD
:101AC000309729F410922D0210922C0202C013823A
:101AD0001282B0932B02A0932A02DF91CF91089536
:101AE000FC010590615070400110D8F780959095E9
:101AF0008E0F9F1F0895DC0101C06D93415050402F
:101B0000E0F70895FC016150704001900110D8F792
:101B1000809590958E0F9F1F08950F931F93CF93DD
:101B2000DF93182F092FEB018B8181FD03C08FEF0D
:101B30009FEF1EC082FF0FC02E813F818C819D814F
:101B40002817390774F4E881F981CF010196998348
:101B50008883108306C0E885F985812F0995892B34
:101B600031F78E819F8101969F838E83812F902FE5
:101B7000DF91CF911F910F910895FA01AA27283084
:101B800051F1203181F1E8946F936E7F6E5F7F4F4A
:101B90008F4F9F4FAF4FB1E03ED0B4E03CD0670FC6
:101BA000781F891F9A1FA11D680F791F8A1F911D19
:101BB000A11D6A0F711D811D911DA11D20D009F469
:101BC00068943F912AE0269F11243019305D3193AB
:101BD000DEF6CF010895462F4770405D4193B3E094
:101BE0000FD0C9F7F6CF462F4F70405D4A3318F03B
:101BF000495D31FD4052419302D0A9F7EACFB4E0EC
:101C0000A6959795879577956795BA95C9F70097A3
:101C10006105710508959B01AC010A2E0694579544
:101C2000479537952795BA95C9F7620F731F841F9B
:101C3000951FA01D08952F923F924F925F926F9231
:101C40007F928F929F92AF92BF92CF92DF92EF924C
:101C5000FF920F931F93CF93DF93CDB7DEB7CA1BCD
:101C6000DB0B0FB6F894DEBF0FBECDBF09942A88F8
:101C7000398848885F846E847D848C849B84AA84A0
:101C8000B984C884DF80EE80FD800C811B81AA812D
:101C9000B981CE0FD11D0FB6F894DEBF0FBECDBFF8
:081CA000ED010895F894FFCF57
:101CA80000002E022000311E66D721D621D6D3D5BA
:101CB800D82100010204080A14285010011100005C
:101CC80000500000000000000000000000000000BC
:101CD80000FF00000000000001B300AD000000009C
:101CE800002C002B002A004000290040000000645E
:101CF80000550100006400B901736D7073206F66B0
:101D08006600736D7073206F6E00736D707320645E
:101D180063006265657000726573657400616C616B
:101D2800726D00646267206F6E00646366006462AF
:101D380067206F66660000090801040702030605AC
:101D480035000000350002003500030035000100B1
:101D58003800050038000400320005003200060093
:041D6800380003003C
:00000001FF
